{
  "_format": "hh-sol-artifact-1",
  "contractName": "Georli_Testnet",
  "sourceName": "contracts/Georli_Testnet.sol",
  "abi": [
    {
      "inputs": [
        {
          "internalType": "uint256",
          "name": "initBalance",
          "type": "uint256"
        }
      ],
      "stateMutability": "payable",
      "type": "constructor"
    },
    {
      "inputs": [
        {
          "internalType": "uint256",
          "name": "balance",
          "type": "uint256"
        },
        {
          "internalType": "uint256",
          "name": "withdrawAmount",
          "type": "uint256"
        }
      ],
      "name": "InsufficientBalance",
      "type": "error"
    },
    {
      "anonymous": false,
      "inputs": [
        {
          "indexed": false,
          "internalType": "uint256",
          "name": "amount",
          "type": "uint256"
        }
      ],
      "name": "Deposit",
      "type": "event"
    },
    {
      "anonymous": false,
      "inputs": [
        {
          "indexed": false,
          "internalType": "uint256",
          "name": "amount",
          "type": "uint256"
        }
      ],
      "name": "Withdraw",
      "type": "event"
    },
    {
      "anonymous": false,
      "inputs": [
        {
          "indexed": false,
          "internalType": "uint256",
          "name": "_number",
          "type": "uint256"
        }
      ],
      "name": "buyNFT",
      "type": "event"
    },
    {
      "inputs": [
        {
          "internalType": "uint256",
          "name": "_number",
          "type": "uint256"
        }
      ],
      "name": "BuyNFT",
      "outputs": [],
      "stateMutability": "nonpayable",
      "type": "function"
    },
    {
      "inputs": [],
      "name": "balance",
      "outputs": [
        {
          "internalType": "uint256",
          "name": "",
          "type": "uint256"
        }
      ],
      "stateMutability": "view",
      "type": "function"
    },
    {
      "inputs": [
        {
          "internalType": "uint256",
          "name": "_amount",
          "type": "uint256"
        }
      ],
      "name": "deposit",
      "outputs": [],
      "stateMutability": "payable",
      "type": "function"
    },
    {
      "inputs": [],
      "name": "getBalance",
      "outputs": [
        {
          "internalType": "uint256",
          "name": "",
          "type": "uint256"
        }
      ],
      "stateMutability": "view",
      "type": "function"
    },
    {
      "inputs": [],
      "name": "getContractAddress",
      "outputs": [
        {
          "internalType": "address",
          "name": "",
          "type": "address"
        }
      ],
      "stateMutability": "view",
      "type": "function"
    },
    {
      "inputs": [],
      "name": "getContractBalance",
      "outputs": [
        {
          "internalType": "uint256",
          "name": "",
          "type": "uint256"
        }
      ],
      "stateMutability": "view",
      "type": "function"
    },
    {
      "inputs": [],
      "name": "owner",
      "outputs": [
        {
          "internalType": "address payable",
          "name": "",
          "type": "address"
        }
      ],
      "stateMutability": "view",
      "type": "function"
    },
    {
      "inputs": [
        {
          "internalType": "uint256",
          "name": "_withdrawAmount",
          "type": "uint256"
        }
      ],
      "name": "withdraw",
      "outputs": [],
      "stateMutability": "nonpayable",
      "type": "function"
    }
  ],
  "bytecode": "0x608060405260405161087e38038061087e833981810160405281019061002591906100ad565b336000806101000a81548173ffffffffffffffffffffffffffffffffffffffff021916908373ffffffffffffffffffffffffffffffffffffffff16021790555080600181905550506100da565b600080fd5b6000819050919050565b61008a81610077565b811461009557600080fd5b50565b6000815190506100a781610081565b92915050565b6000602082840312156100c3576100c2610072565b5b60006100d184828501610098565b91505092915050565b610795806100e96000396000f3fe60806040526004361061007b5760003560e01c80638da5cb5b1161004e5780638da5cb5b1461012a578063a37365e014610155578063b69ef8a81461017e578063b6b55f25146101a95761007b565b806312065fe0146100805780632e1a7d4d146100ab57806332a2c5d0146100d45780636f9fb98a146100ff575b600080fd5b34801561008c57600080fd5b506100956101c5565b6040516100a291906104bc565b60405180910390f35b3480156100b757600080fd5b506100d260048036038101906100cd9190610508565b6101cf565b005b3480156100e057600080fd5b506100e9610320565b6040516100f69190610576565b60405180910390f35b34801561010b57600080fd5b50610114610328565b60405161012191906104bc565b60405180910390f35b34801561013657600080fd5b5061013f610330565b60405161014c91906105b2565b60405180910390f35b34801561016157600080fd5b5061017c60048036038101906101779190610508565b610354565b005b34801561018a57600080fd5b50610193610397565b6040516101a091906104bc565b60405180910390f35b6101c360048036038101906101be9190610508565b61039d565b005b6000600154905090565b60008054906101000a900473ffffffffffffffffffffffffffffffffffffffff1673ffffffffffffffffffffffffffffffffffffffff163373ffffffffffffffffffffffffffffffffffffffff161461025d576040517f08c379a000000000000000000000000000000000000000000000000000000000815260040161025490610650565b60405180910390fd5b600060015490508160015410156102af57600154826040517fcf4791810000000000000000000000000000000000000000000000000000000081526004016102a6929190610670565b60405180910390fd5b81600160008282546102c191906106c8565b9250508190555081816102d491906106c8565b600154146102e5576102e46106fc565b5b7f5b6b431d4476a211bb7d41c20d1aab9ae2321deee0d20be3d9fc9b1093fa6e3d8260405161031491906104bc565b60405180910390a15050565b600030905090565b600047905090565b60008054906101000a900473ffffffffffffffffffffffffffffffffffffffff1681565b61035d816101cf565b7f51ed82889ecce057fdba6f4944260723384cc88fbef55a184d42771d07a6eb268160405161038c91906104bc565b60405180910390a150565b60015481565b6000600154905060008054906101000a900473ffffffffffffffffffffffffffffffffffffffff1673ffffffffffffffffffffffffffffffffffffffff163373ffffffffffffffffffffffffffffffffffffffff1614610432576040517f08c379a000000000000000000000000000000000000000000000000000000000815260040161042990610650565b60405180910390fd5b8160016000828254610444919061072b565b925050819055508181610457919061072b565b60015414610468576104676106fc565b5b7f4d6ce1e535dbade1c23defba91e23b8f791ce5edc0cc320257a2b364e4e384268260405161049791906104bc565b60405180910390a15050565b6000819050919050565b6104b6816104a3565b82525050565b60006020820190506104d160008301846104ad565b92915050565b600080fd5b6104e5816104a3565b81146104f057600080fd5b50565b600081359050610502816104dc565b92915050565b60006020828403121561051e5761051d6104d7565b5b600061052c848285016104f3565b91505092915050565b600073ffffffffffffffffffffffffffffffffffffffff82169050919050565b600061056082610535565b9050919050565b61057081610555565b82525050565b600060208201905061058b6000830184610567565b92915050565b600061059c82610535565b9050919050565b6105ac81610591565b82525050565b60006020820190506105c760008301846105a3565b92915050565b600082825260208201905092915050565b7f596f7520617265206e6f7420746865206f776e6572206f66207468697320616360008201527f636f756e74000000000000000000000000000000000000000000000000000000602082015250565b600061063a6025836105cd565b9150610645826105de565b604082019050919050565b600060208201905081810360008301526106698161062d565b9050919050565b600060408201905061068560008301856104ad565b61069260208301846104ad565b9392505050565b7f4e487b7100000000000000000000000000000000000000000000000000000000600052601160045260246000fd5b60006106d3826104a3565b91506106de836104a3565b92508282039050818111156106f6576106f5610699565b5b92915050565b7f4e487b7100000000000000000000000000000000000000000000000000000000600052600160045260246000fd5b6000610736826104a3565b9150610741836104a3565b925082820190508082111561075957610758610699565b5b9291505056fea26469706673582212200b6f561fd8d526c6fd332b2c9dd5826a92740282eee6d4154dc7879f01301c5664736f6c63430008110033",
  "linkReferences": {},
  "deployedLinkReferences": {}
}